:020000040800F2
:10000000C857002085020008254500083D3E00082D
:100010000944000841060008315B000800000000A8
:10002000000000000000000000000000C501000802
:10003000E708000800000000210200085D4F0008EA
:100040009F0200089F0200089F0200089F0200080C
:100050009F020008C54B00089F0200089F0200088D
:100060009F0200089F0200089F020008BD070008C9
:100070009F0200089F0200089F0200089F020008DC
:100080009F020008CD0700089F0200089F02000899
:10009000450600089F0200089F0200089F02000812
:1000A0009F0200083D5000089F0200089F020008C0
:1000B0009F0200084D5000085D5000089F02000894
:1000C0009F0200089F0200089F0200089F0200088C
:1000D0009F0200089F0200089F0200089F0200087C
:1000E0009F0200089F0200089F0200086D50000850
:1000F0009F0200087D5000089F0200089F02000830
:100100009F0200089F0200089F0200089F0200084B
:100110009F0200089F0200089F0200089F0200083B
:100120009F0200089F0200089F0200089F0200082B
:100130009F0200089F0200089F0200089F0200081B
:10014000550600089F0200089F0200089F02000851
:100150009F0200089F0200089F0200089F020008FB
:100160009F0200089F0200089F0200089F020008EB
:100170009F0200089F0200089F0200080000000084
:100180009F0200089F0200084554000855540008CB
:100190009F0200089F0200089F0200089F020008BB
:1001A00000000000000000009F020008DFF810D0EF
:1001B00000F034FA00480047315E0008AFF30080D9
:1001C000C85700202C4B19680868B0E8F04F80F33E
:1001D0000988BFF36F8F4FF0000080F311887047DC
:1001E0000000000008480068006880F308884FF0AD
:1001F000000080F3148862B661B6BFF34F8FBFF37F
:100200006F8F00DF00BF00BF08ED00E0DFF80C00DB
:10021000016841F470010160704700BF88ED00E0A3
:10022000EFF30980BFF36F8F134B1A681EF0100FA6
:1002300008BF20ED108A20E9F04F106009B44FF09C
:10024000500080F31188BFF34F8FBFF36F8F06F01C
:1002500065FF4FF0000080F3118809BC1968086839
:10026000B0E8F04F1EF0100F08BFB0EC108A80F31A
:100270000988BFF36F8F704724000020EFF30580DB
:10028000704700000648804706480047FEE7FEE743
:10029000FEE7FEE7FEE7FEE7FEE7FEE7FEE7FEE736
:1002A00029500008AD0100082DE9F05F0546002047
:1002B00092469B4688460646814640241BE02846D7
:1002C00041464746224600F005F953465A46C01AB1
:1002D000914110D311461846224600F0ECF82D1A31
:1002E00067EB01084F4622460120002100F0E3F8A9
:1002F00017EB00094E41201EA4F10104DFDC484643
:1003000031462A464346BDE8F09F40EA01039B0779
:1003100003D009E008C9121F08C0042AFAD203E07A
:1003200011F8013B00F8013B521EF9D27047D2B2DE
:1003300001E000F8012B491EFBD270470022F6E7CE
:1003400010B513460A4604461946FFF7F0FF20464B
:1003500010BD2DE9F04D81EA030404F0004B21F0BB
:10036000004514464FF0000A23F0004150EA050210
:1003700020D054EA01021DD0C5F30A570246C5F346
:100380001303C1F31300C1F30A5640F4801543F47C
:100390008013A7EB0608101BD64608F2FD3873EB56
:1003A000050002D308F1010801E092185B41B8F1A1
:1003B000000F03DA00200146BDE8F08D00204FF465
:1003C0008011064684460EE0171B73EB050705D324
:1003D000121B63EB050306434CEA010C49084FEA84
:1003E000300092185B4150EA0107EDD152EA030058
:1003F00012D082EA040083EA0501084305D0101BED
:10040000AB4106D20122002306E000224FF0004358
:1004100002E06FF0010253101AEB06004CEB08519A
:1004200010EB0A0041EB0B01BDE8F04D00F099B86C
:100430000EB5C10F80EAE0700844CA07002140F2FF
:1004400033438DE80E000A460B4600F099F803B0DE
:1004500000BD01F0004330B421F0004150EA010238
:1004600006D00A0DA2F56072C1F31301002A02DC66
:1004700030BC00207047440F44EAC104C100E018BA
:1004800030BC00EBC25000F035B830B50B46014629
:1004900000202022012409E021FA02F59D4205D323
:1004A00003FA02F5491B04FA02F52844151EA2F1CD
:1004B0000102F1DC30BD202A04DB203A00FA02F10F
:1004C000002070479140C2F1200320FA03F3194342
:1004D00090407047202A04DB203A21FA02F00021E4
:1004E000704721FA02F3D040C2F120029140084344
:1004F000194670470029A8BF7047401C490008BF33
:1005000020F00100704710B4B0FA80FC00FA0CF043
:1005100050EA010404BF10BC704749B1CCF120047B
:1005200021FA04F411FA0CF118BF01212143084308
:10053000A3EB0C01CB1D4FEA00614FEA102042BF34
:10054000002010BC704700EBC35010440029A4BF2A
:1005500010BC7047401C490008BF20F0010010BCCF
:10056000704710B5141E73F1000408DA401C41F105
:10057000000192185B411A4301D120F0010010BD27
:100580002DE9F04D92469B4611B1B1FA81F202E09D
:10059000B0FA80F220329046FFF78DFF04460F46F6
:1005A00040EA0A0041EA0B0153465A46084313D079
:1005B000114653EA010019D0C8F140025046FFF736
:1005C00089FF05460E46504659464246FFF773FFDF
:1005D000084305D0012004E020463946BDE8F08DEF
:1005E0000020054346EAE0762C4337430A9863052A
:1005F000E40AA0EB08000022FD0A44EA47540A304E
:1006000002D500200146E9E7010510196941DDE93D
:10061000084500196941BDE8F04DA2E7064C074DB9
:1006200006E0E06840F0010394E8070098471034C2
:10063000AC42F6D3FFF7BEFDB07F0008D07F0008C4
:1006400000BFFEE710B5024800F07FFE10BD0000BD
:100650000401002010B5024800F077FE10BD000034
:100660002C010020F8B507460C4615461E4640F200
:10067000FF100D49086000208860C86008200861EC
:10068000380A0A4908704F70200A8870CC70280A0E
:1006900008714D71300A8871CE716B460A46024965
:1006A000034800F050FCF8BD98530020E7000020FC
:1006B00004010020F8B507460C4615461E460020EA
:1006C00000904FF400700D49086000208860C860F9
:1006D00008200861380A0A4908704F70200A88709B
:1006E000CC70280A08714D71300A8871CE716B4642
:1006F0000A460249034800F026FCF8BDB05300202A
:10070000EF0000200401002000B58BB0012009900B
:100710000020079001200890002001900290039093
:1007200004900690059001A90C4800F0B1FC0B481C
:1007300001F013F90221094800F0F0FB0E200A90A5
:10074000069001A9064800F0A3FC054801F005F950
:100750000221034800F0E2FB0BB000BD04010020C1
:100760002C01002000BF0E4802F04EFA0D4802F0A6
:100770004BFA0D4802F048FA03F048FE04F0D0FBB3
:1007800014220A490A4802F0B8FE06F009FA0146A6
:1007900008A005F057FA002006F0AAFBE3E70000E6
:1007A00054010020E4010020740200208051002048
:1007B0001407002025640D0A0000000010B502484F
:1007C00001F06CF910BD00000408002010B50248CB
:1007D00001F064F910BD0000A4070020014608786C
:1007E00010381823B0FBF3F20848805CC865032A70
:1007F00005D908686FF30900001D886503E00868E3
:100800006FF309008865886D704700006C7F0008F1
:10081000014600208A6A8B69CBB932B1012A0DD01A
:10082000022A03D0032A10D10EE000BFCB6A03F0E6
:100830008073B3F1807F00D1012007E0CB6AB3F170
:10084000C07F00D1012001E000E000BF34E08B69EF
:10085000B3F5005F1AD132B1012A07D0022A03D0C2
:10086000032A11D10AE000BF01200EE0CB6A03F099
:100870008073B3F1807F00D1012006E0CB6AB3F131
:10088000C07F00D1012000E000BF15E032B1012A95
:1008900005D0022A04D0032A0CD103E000BF00BF18
:1008A000012008E0CB6A03F08073B3F1807F00D1B0
:1008B000012000E000BF00BF704730B50468246825
:1008C00024F4802405682C60046863608468402CEC
:1008D00004D10468A2600468E16003E00468A160D8
:1008E0000468E26030BD704739480088012835D17E
:1008F00040F6C410374908803748006840F6C411F4
:10090000884201D1354908803348001F006840F60D
:10091000C411884201D1324908802F480838006844
:1009200040F6C411884201D12E4908804FF0804022
:10093000C06B40F6C411884201D12B4908804FF0AA
:100940008040806B40F6C411884240D1022020498B
:10095000088040F6C4102549088038E01C4800880B
:10096000022834D140F2DC501A4908801A48006845
:1009700040F2DC51884201D1184908801648001F16
:10098000006840F2DC51884201D1154908801248C4
:100990000838006840F2DC51884201D111490880D2
:1009A0004FF08040C06B40F2DC51884201D10E49CB
:1009B00008804FF08040806B40F2DC51884206D1C5
:1009C00000200349088040F2DC5008490880704745
:1009D000E4000020A80000203C080040AC000020FB
:1009E000B0000020AA000020AE000020B2000020CD
:1009F00072B600BFFEE770B590B004466A46322179
:100A00000DA804F0DFF90DA9204600F00DF80DA89F
:100A100004F094F9401E86B231460DA804F0BCF9EA
:100A20000546284610B070BD70B504460D462188B5
:100A3000284604F048FAA178284604F024FAE17820
:100A4000284604F020FAE278211D284604F023FA13
:100A5000284604F08DF906463146284604F013FA7C
:100A600070BD00002DE9F7432DED048B8EB080465C
:100A700014464FF0010913AB01220A21404600F051
:100A800011F96946404600F071F8074617BB9DF81A
:100A900004509DF84C00854205D007200EB0BDECF7
:100AA000048BBDE8FE839DF805109DF8060041EA21
:100AB000002006B23046FFF7BBFC41EC190B9FED5E
:100AC000060B53EC102BFFF744FC41EC180BFFF71F
:100AD000C0FC20603846E1E7000000000000244030
:100AE0002DE9F7432DED048B8EB0804614464FF070
:100AF000010913AB01221021404600F0D3F86946EA
:100B0000404600F033F807464FBB9DF804509DF86F
:100B10004C00854205D007200EB0BDEC048BBDE82B
:100B2000FE839DF805109DF8060041EA00219DF81E
:100B3000070041EA00419DF8080041EA006630469E
:100B4000FFF776FC41EC190B9FED060B53EC102BD5
:100B5000FFF7FFFB41EC180BFFF77BFC20603846EA
:100B6000DAE7000000000000000024402DE9F04119
:100B700005460C46002084F8370000270026642034
:100B800004F022FC87E0A86804F0D8F800B982E0FD
:100B900094F8370000F00800C8B1A86804F06DF9B7
:100BA00004F8360F607840F010006070363C204644
:100BB000FFF721FF94F83610884204D004F010FCAF
:100BC0000620BDE8F08104F00BFC0020F9E794F862
:100BD000370000F0040080B1A86804F04EF9211D30
:100BE000C855781CC7B2E078B84253D194F83700A2
:100BF00040F0080084F837004CE094F8370000F02B
:100C0000020088B1A86804F038F9E070E0782D2877
:100C100003DD04F0E5FB0520D3E794F8370040F04E
:100C2000040084F8370035E094F8370000F0010044
:100C300088B1A86804F021F9A070A078112803DD1C
:100C400004F0CEFB0420BCE794F8370040F002002B
:100C500084F837001EE03EB9A86804F00EF9064695
:100C6000052E17D0002615E0052E12D1A86804F035
:100C700004F946EA002641F60540864201D00026E6
:100C800008E0268094F8370040F0010084F837002F
:100C900000E0002600BF04F0AFFB00283FF473AF74
:100CA00002208EE7F0B58FB005460E4614461F466B
:100CB00044F61240ADF804008DF806608DF8074048
:100CC000002003E03A5C02A90A54401CA042F9DB70
:100CD00001A86968FFF7A8FE284604F02BFF0FB0B3
:100CE000F0BD00002DE9F0432DED028B85B00646E6
:100CF0000F46B0EE408A14461D46DDF838804FF0AE
:100D0000070903AA0721684604F05CF89FED230A4F
:100D1000B4EEC08AF1EE10FA04DD9FED200AB0EEC9
:100D2000408A0AE09FED1E0AB4EEC08AF1EE10FA86
:100D300003D29FED1B0AB0EE408A3946684604F0A4
:100D4000A2F8B2EE040A28EE000ABDEEC00A10EEC8
:100D5000100A01B2684604F0ADF82146684604F076
:100D6000B2F82946684604F0AEF80DF10D030722EB
:100D700008213046FFF796FFB8F1000F0BD0002294
:100D8000B0EE480A3946304600F00CF805B0BDEC2C
:100D9000028BBDE8F0830020F8E700000000344338
:100DA000000034C3F0B52DED028B81B006460F462E
:100DB000B0EE408A1446002528E02CB16A46394638
:100DC0003046FFF78DFE04E06A4639463046FFF7AD
:100DD00049FE9DED000A38EE400AF0EEC08AB7EEFB
:100DE000000AF4EEC08AF1EE10FA04D8002001B037
:100DF000BDEC028BF0BD681C85B242F210708542DA
:100E000001DB0120F3E7642004F000FBD5E70000DC
:100E100000B52DED028B81B02948B0F900006E2895
:100E200002DD6E20264908802548B0F9000010F147
:100E30006E0F03DA6FF06D002149088000200090EA
:100E40001F48B0F9000000EE900AF8EEE00AB0EE9C
:100E5000600A6423C82200211A480068FFF742FF95
:100E60001748B0F902006E2802DD6E201449488050
:100E70001348B0F9020010F16E0F03DA6FF06D0045
:100E80000F4948800E48B0F90200032190FBF1F0B1
:100E900000EE100AB8EEC00AB0EE408A00206423CB
:100EA000C8220121009007480068FFF71BFF0020BF
:100EB00003490880488001B0BDEC028B00BD0000F2
:100EC000945100201000002000BF03F057FC03F0F5
:100ED00095FC05F065FE014605A004F0B3FE062270
:100EE00005A1074802F075FE642004F0C5FFECE799
:100EF00025640D0A00000000467265650D0A0000B9
:100F0000CC060020014601F0070000EB8000024AF9
:100F100002EB4000704700005C53002010B5024611
:100F200092F82030012B01D0022B06D110684069C5
:100F3000084314686061002010BD506A40F48020AE
:100F400050620120F8E7F0B504460D461E4694F8BD
:100F5000207020688368A86800B900E000BF012FF6
:100F600001D0022F7DD103F0806030B903F0006022
:100F700018B903F0805000287ED0C3F3016101202E
:100F800088403060A86860B9B5F800C0E86840EAF9
:100F90004C5C206800F5C07000EB0110C0F800C088
:100FA0000FE0D5E901C040EACC00D5F80CC040EA1A
:100FB0000C00D4F800C00CF5C07C0CEB011CCCF884
:100FC0000000D5F810C0206800F5C07000EB0110DB
:100FD000C0F804C0287D01280ED1206800F5C0703B
:100FE00000EB0110406840F4807C206800F5C07080
:100FF00000EB0110C0F804C0D079000692F806C0DA
:1010000040EA0C4092F805C040EA0C2092F804C077
:1010100040EA0C00D4F800C00CF5C07C0CEB011CBD
:10102000CCF80C00D078000692F802C040EA0C40E0
:1010300092F801C040EA0C2092F800C040EA0C008F
:10104000D4F800C00CF5C07C0CEB011CCCF80800F7
:10105000206800F5C07000EB0110006840F0010C42
:1010600001E00FE008E0206800F5C07000EB01101F
:10107000C0F800C00020F0BD606A40F4001060625B
:101080000120F8E7606A40F4802060620120F2E706
:10109000F0B504460A46216894F82050012D01D08D
:1010A000022D7ED1424901F50071086840F001002F
:1010B0000860086820F47C5008600868566A40EAB6
:1010C00006200860107D00F01F06012000FA06F3DC
:1010D000C8699843C861A1F50071D069C8B9D1F851
:1010E0000C029843C1F80C02908880B2968940EABD
:1010F000064601F51070576940F83760108880B2D5
:10110000168940EA064601F51070576900EBC700E2
:101110004660D069012819D1D1F80C021843C1F8F2
:101120000C02908880B2168840EA064601F51070DD
:10113000576940F83760908980B2168940EA0646C0
:1011400001F51070576900EBC7004660906928B937
:10115000D1F804029843C1F8040204E0D1F8040273
:101160001843C1F80402106928B9D1F81402984351
:10117000C1F8140204E0D1F814021843C1F81402B3
:10118000106A012804D1D1F81C021843C1F81C02CE
:10119000D1F8000220F00100C1F800020020F0BDEB
:1011A000FFE7606A40F4802060620120F7E70000FA
:1011B00000640040704770B5044694F82050012D3B
:1011C00001D0022D7DD151B92068C06800F0030024
:1011D00080B9606A40F400106062012070BD206830
:1011E000006900F0030028B9606A40F400106062F2
:1011F0000120F3E7206800F5D87000EB01100068CB
:1012000000F004009060906840B9206800F5D87044
:1012100000EB01100068400D106007E0206800F549
:10122000D87000EB01100068C0085060206800F51D
:10123000D87000EB0110006800F00200D060206858
:1012400000F5D87000EB0110406800F00F0008288E
:1012500002D30820106108E0206800F5D87000EB88
:101260000110406800F00F001061206800F5D87090
:1012700000EB0110406800F47F40000A9061206894
:1012800000F5D87000EB01104068000C5061206838
:1012900000F5D87000EB011080681870206800F528
:1012A000D87000EB0110806800F47F40000A58708D
:1012B000206800F5D87000EB0110806800F47F0012
:1012C00000E03CE0000C9870206800F5D87000EB5E
:1012D00001108068000ED870206800F5D87000EB0F
:1012E0000110C0681871206800F5D87000EB01107B
:1012F000C06800F47F40000A5871206800F5D8707B
:1013000000EB0110C06800F47F00000C98712068A9
:1013100000F5D87000EB0110C068000ED87131B92B
:101320002068C06840F020002668F06005E0206872
:10133000006940F020002668306100204EE7606AB6
:1013400040F480206062012048E72DE9F05F044608
:101350000025206846692068D0F8049020688768D6
:101360002068D0F80CA02068D0F810B02068D0F821
:10137000188006F00100002855D007F00100C0B128
:1013800001202168886007F0020018B1204600F0B3
:1013900014FB0EE007F0040010B145F4006508E00E
:1013A00007F0080010B145F4805502E0204600F037
:1013B00003FB07F48070C8B14FF480702168886027
:1013C00007F4007018B1204600F0F9FA0EE007F4B7
:1013D000806010B145F4005508E007F4006010B1DA
:1013E00045F4804502E0204600F0E8FA07F480303A
:1013F000C8B14FF480302168886007F4003018B11C
:10140000204600F0DEFA0EE007F4802010B145F42B
:10141000004508E007F4002010B145F4803502E0F3
:10142000204600F0CDFA06F0080038B10AF01000AE
:1014300020B145F4007510202168C86006F0040052
:1014400040B10AF0080028B108202168C860204691
:1014500000F00CFA06F0020038B12068C06800F015
:10146000030010B1204600F003FA06F0400038B146
:101470000BF0100020B145F4806510202168086150
:1014800006F0200040B10BF0080028B108202168C8
:101490000861204600F05EFA06F0100038B12068BE
:1014A000006900F0030010B1204600F054FA06F481
:1014B000003040B109F0100028B1102021684860C8
:1014C000204600F049FA06F4803040B109F00800E7
:1014D00028B1082021684860204600F073FA06F41D
:1014E000004088B309F0040078B306F4807020B19E
:1014F00008F0010008B145F0010506F4007020B1C4
:1015000008F0020008B145F0020506F4806020B141
:1015100008F0040008B145F0040506F40060A0B12D
:1015200008F0700088B108F07000402817D006DC81
:1015300010280BD020280CD0302819D10CE05028CE
:1015400010D0602814D110E01DE019E045F0080526
:101550000FE045F010050CE045F0200509E045F0EE
:10156000400506E045F0800503E045F4807500E0A5
:1015700000BF00BF2068806920F07000216888618A
:101580000420216848602DB1606A284360622046CB
:10159000FFF710FEBDE8F09F70B504460CB90120BE
:1015A00070BD94F8200010B9204600F0AFF8206814
:1015B000006840F001002168086000F05DFD05460C
:1015C0000DE000F059FD401B0A2808D9606A40F47C
:1015D00000306062052084F820000120E0E72068E8
:1015E000406800F001000028EBD02068006820F07F
:1015F00002002168086000F03FFD05460DE000F0A4
:101600003BFD401B0A2808D9606A40F40030606244
:10161000052084F820000120C2E72068406800F01F
:1016200002000028EBD1207E012806D12068006846
:1016300040F080002168086005E02068006820F024
:10164000800021680860607E012806D1206800685B
:1016500040F040002168086005E02068006820F044
:10166000400021680860A07E012806D1206800683B
:1016700040F020002168086005E02068006820F044
:10168000200021680860E07E012806D120680068FB
:1016900020F010002168086005E02068006840F034
:1016A000100021680860207F012806D120680068AA
:1016B00040F008002168086005E02068006820F01C
:1016C000080021680860607F012806D12068006852
:1016D00040F004002168086005E02068006820F000
:1016E000040021680860D4E9020108432169084325
:1016F000616908436168491E08432168C861002088
:101700006062012084F82000002049E710B586B00F
:101710000446142101A8FEF711FE4E4920688842B4
:1017200041D14D480068401C4B490860084600689C
:1017300001280FD100BF002000904848006840F009
:101740000070464908600846006800F0007000908C
:1017500000BF00BF00BF0020009040481038006864
:1017600040F008003D49103908600846006800F064
:101770000800009000BF00BF0320019002200290EB
:1017800000200390032004900920059001A934480B
:1017900000F064FB00220521142000F03DFD142020
:1017A00000F026FD54E02F492068884250D100BF48
:1017B000002000902948006840F0806027490860B8
:1017C0000846006800F08060009000BF00BF22481B
:1017D0000068401C204908600846006801280FD1B5
:1017E00000BF002000901D48006840F000701B49B9
:1017F00008600846006800F00070009000BF00BF5D
:1018000000BF0020009015481038006840F002002A
:101810001249103908600846006800F00200009084
:1018200000BF00BF602001900220029000200390C2
:10183000032004900920059001A90B4800F00EFB3D
:1018400000220521402000F0E7FC402000F0D0FC01
:1018500006B010BD006400400C000020403802407B
:10186000000C024000680040000402407047000085
:1018700010B58AB0044601AB03AA00212046FFF749
:101880009AFC0398A0F20120062859D2DFE800F064
:1018900003040506070800BF00BF00BF00BF00BF6C
:1018A0000398401E284908700846007800EB800025
:1018B000264901EB4000C0882349097801EB8101EA
:1018C000224A02EB410108819DF805009DF80410B1
:1018D00040EA012000B21C49097801EB810102EBCA
:1018E0004101C8809DF807009DF8061040EA0120DC
:1018F00000B21549097801EB810122F811009DF829
:1019000009009DF8081040EA012000B20E4909784C
:1019100001EB810102EB410148809DF80A000A4970
:10192000097801EB810102EB41010871064800785A
:1019300000EB8000114611F810000549087000E026
:1019400000BF00BF0AB010BDF80000205C530020AB
:10195000F700002070477047704770B5044694F850
:101960002000012822D1022084F82000206800688D
:1019700020F001002168086000F07EFB05460DE0C4
:1019800000F07AFB401B0A2808D9606A40F4003056
:101990006062052084F82000012070BD2068406846
:1019A00000F001000028EBD16062F6E7606A40F4C5
:1019B000002060620120F0E7704770477047704771
:1019C00070477047704770B50446A56D00F054FB32
:1019D000064694F83500022808D08020606500BFD4
:1019E000002084F8340000BF012070BD206800682A
:1019F00020F01600216808602068406920F080000F
:101A000021684861206C08B9A06C28B12068006882
:101A100020F00800216808602068006820F00100BC
:101A20002168086010E000F027FB801B05280BD917
:101A300020206065032084F8350000BF002084F872
:101A4000340000BF0320D0E72068006800F00100E8
:101A50000028E8D194F85C103F208840A86001205D
:101A600084F8350000BF002084F8340000BF00BFB8
:101A7000BBE7014691F83500022803D08020486575
:101A800001207047052081F835000868006820F0C3
:101A900001000A6810600020F3E70000F8B5044672
:101AA000002000908C4800684FF41651B0FBF1F70D
:101AB000A56D2E6894F85C1008208840304098B1DD
:101AC0002068006800F0040070B12068006820F011
:101AD00004002168086094F85C1008208840A86021
:101AE000606D40F00100606594F85C100120884052
:101AF000304068B12068406900F0800040B194F83F
:101B00005C1001208840A860606D40F002006065B4
:101B100094F85C1004208840304068B12068006868
:101B200000F0020040B194F85C1004208840A860E6
:101B3000606D40F00400606594F85C1010208840EF
:101B4000304078B32068006800F0080050B394F883
:101B50005C1010208840A8602068006800F4802095
:101B600080B12068006800F4002028B9206CC8B15A
:101B70002046216C884715E0A06C98B12046A16CE6
:101B800088470FE02068006800F4807028B920685A
:101B9000006820F0080021680860206C10B1204621
:101BA000216C884794F85C10202088403040002841
:101BB00065D02068006800F0100000285FD094F81D
:101BC0005C1020208840A86094F83500052828D1B2
:101BD0002068006820F016002168086020684069CD
:101BE00020F0800021684861206C08B9A06C28B101
:101BF0002068006820F008002168086094F85C10F4
:101C00003F208840A860012084F8350000BF0020F4
:101C100084F8340000BF206D10B12046216D884744
:101C2000F8BD2068006800F4802080B1206800685A
:101C300000F4002028B9606C10B12046616C884720
:101C40001DE0E06BD8B12046E16B884717E02068C3
:101C5000006800F4807068B92068006820F0100007
:101C600021680860012084F8350000BF002084F856
:101C7000340000BFE06B10B12046E16B8847606D17
:101C800038B3606D00F00100F0B1052084F8350034
:101C90002068006820F001002168086000BF0098FB
:101CA000401C0090B84200D905E02068006800F0B0
:101CB00001000028F3D100BF012084F8350000BFE7
:101CC000002084F8340000BFE06C10B12046E16CC5
:101CD000884700BFA4E70000200000202DE9F04164
:101CE0000446002500F0C8F9074614B90120BDE8F4
:101CF000F081606A00B100BF022084F8350000BFA7
:101D0000002084F8340000BF2068006820F0010043
:101D1000216808600AE000F0AFF9C01B052805D96A
:101D200020206065032084F83500E0E72068006823
:101D300000F001000028EED1206805682148054028
:101D4000D4E901010843E168084321690843616956
:101D50000843A1690843E1690843216A0843054330
:101D6000606A042803D1D4E90B01084305432068C5
:101D700005602068456925F00705606A0543606ACB
:101D800004280DD1A06A0543E06A48B12046FEF759
:101D90003FFD28B140206065012084F83500A6E7AA
:101DA000206845612046FEF719FD064694F85C1050
:101DB0003F208840B06000206065012084F8350035
:101DC000002094E73F8010F02DE9F04704460D46CF
:101DD00016461F464FF00008D4F8589000BF94F8FC
:101DE0003400012802D10220BDE8F087012084F8E8
:101DF000340000BF94F83500012825D1022084F872
:101E00003500002060653B46324629462046FEF7F5
:101E100054FD94F85C103F208840C9F80800206801
:101E2000006840F0160021680860206C28B1206826
:101E3000006840F00800216808602068006840F0F1
:101E400001002168086006E000BF002084F834002B
:101E500000BF4FF002084046C6E70000F8B5024652
:101E60000B460025002400200021E0E0012606FAB0
:101E700001F51E6806EA0504AC4274D11E7906F02D
:101E80000306012E04D01E7906F00306022E13D19C
:101E900090684F000326BE40B0434F00DE68BE404E
:101EA00030439060506801268E40B0431E79C6F3DF
:101EB00000168E40304350601E7906F00306032E54
:101EC00009D0D0684F000326BE40B0434F009E6843
:101ED000BE403043D0601E7906F00306022E13D1B7
:101EE000CF0802F1200656F827004E07F70E0F26FE
:101EF000BE40B0434F07FF0E1E69BE403043CF08BF
:101F000002F1200646F8270010684F000326BE4065
:101F1000B0431E7906F003064F00BE403043106008
:101F20005E6806F44036002E1DD000BF00260096E5
:101F3000414E366846F480463F4F3E603E46366826
:101F400006F48046009600BF00BF3C4E8F0856F84E
:101F500027008E07370F0F26BE40B043384EB242DF
:101F600002D100262EE061E0364EB24201D10126B8
:101F700028E0354EB24201D1022623E0334EB24270
:101F800001D103261EE0324EB24201D1042619E0EF
:101F9000304EB24201D1052614E02F4EB24201D19B
:101FA00006260FE02D4EB24201D107260AE02C4E44
:101FB000B24201D1082605E02A4EB24201D10926DB
:101FC00000E00A268F073F0FBE4030431B4E8F08AC
:101FD00046F82700244E3068A0435E6806F4801659
:101FE00006B12043204E3060361D3068A0435E6845
:101FF00006F4001606B120431B4E361D30601A4E03
:10200000361F3068A0435E6806F4003606B12043F0
:10201000154E361F3060361F3068A0435E6806F4E8
:10202000803606B12043104E083E3060491C10290E
:10203000FFF41CAFF8BD00004438024008380140EE
:10204000000002400004024000080240000C024070
:10205000001002400014024000180240001C024020
:102060000020024000240240083C01400AB1816186
:1020700001E00B048361704701480068704700006D
:102080001400002003480068034909780844014906
:1020900008607047140000201C00002010B50D4897
:1020A000006840F400700B4908600846006840F47E
:1020B000806008600846006840F480700860032073
:1020C00000F0E8F80F2000F007F800F05FF80020BB
:1020D00010BD0000003C02402DE9F04188B00446EC
:1020E0000027B84600BF002001902348006840F454
:1020F0008070214908600846006800F480700190F3
:1021000000BF00BF02A903A800F09AF9069F1FB9FB
:1021100000F0BEF9054602E000F0BAF945001748A4
:10212000B5FBF0F0A0F1010815481649086040F22F
:10213000E7311448C160C0F804800021016181606A
:10214000816100F0C7FC064696B90E4800F05CFDC0
:1021500006466EB92D2000F04BF8102C07D2002255
:1021600021462D2000F058F80748046000E00126C1
:10217000304608B0BDE8F0814038024040420F00D0
:1021800000200040640800201800002008B500BFAF
:10219000002000901548006840F480401349086012
:1021A0000846006800F48040009000BF00BF00BFF8
:1021B00000200090081F006840F08050091F086050
:1021C0000846006800F08050009000BF00BF002269
:1021D0000F21901E00F020F800220521084600F093
:1021E0001BF8052000F004F808BD00004438024048
:1021F0000146084600280DDB00BF00BF00F01F03AA
:1022000001229A4043099B0003F1E023C3F8002117
:1022100000BF00BF00BF70472DE9F05F80460D464C
:102220001646002703F01EFD074639462A46334668
:1022300001F00700C0F1070ABAF1040F02D94FF00C
:10224000040A01E0C0F1070AD14600F1040ABAF11C
:10225000070F02D24FF0000A01E0A0F1030AD446B2
:102260004FF0010A0AFA09FAAAF1010A0AEA020A77
:102270000AFA0CFA4FF0010B0BFA0CFBABF1010B55
:102280000BEA030B4AEA0B042146404603F0F2FC3A
:10229000BDE8F09F00BF00F00702064B19684FF63B
:1022A000FF031940044B0B4343EA0221014B196021
:1022B00000BF70470CED00E00000FA0570B5044661
:1022C0000D460CB9012070BD5848006800F00F00A1
:1022D000A84209D255490D700846006800F00F0069
:1022E000A84201D00120EEE7207800F00200022889
:1022F0001DD1207800F00400042805D14C48006866
:1023000040F4E0504A490860207800F008000828AE
:1023100005D14748006840F460404549086044489A
:10232000006820F0F000A168084341490860207867
:1023300000F00100A8B36068012807D13C480838C4
:102340000068C0F34040B8B90120BCE760680228CB
:1023500002D06068032807D1354808380068C0F308
:10236000406048B90120AEE7314808380068C0F342
:10237000400008B90120A6E72D48006820F00300BE
:10238000616808432A490860FFF776FE064609E0BF
:10239000FFF772FE801B41F28831884202D9032088
:1023A00091E707E02248006800F00C006168B0EB9C
:1023B000810FEDD11D48006800F00F00A84209D937
:1023C0001A490D700846006800F00F00A84201D0BD
:1023D000012078E7207800F00400042807D1144891
:1023E000006820F4E050E168084311490860207853
:1023F00000F00800082808D10D48006820F460406B
:10240000216940EAC1000A49086000F061F8084902
:102410000968C1F30311074A515CC84006490860C6
:1024200006480068FFF758FE00204CE7003C0240D9
:1024300008380240747F00082000002018000020A7
:102440000F2202600D4A126802F0030242600B4A3A
:10245000126802F0F0028260084A126802F4E05248
:10246000C260064A126802F46042D2080261044A5D
:10247000126802F00F020A6070470000083802403C
:10248000003C024001480068704700002000002026
:1024900000B5FFF7F7FF04490968C1F38221034A39
:1024A000515CC84000BD000008380240847F00082D
:1024B00000B5FFF7E7FF04490968C1F34231034A59
:1024C000515CC84000BD000008380240847F00080D
:1024D0002DE9F047002400250026A1462548006884
:1024E00000F00C0020B1042805D008283AD105E0FE
:1024F000DFF8849039E0DFF8849036E01D48001F53
:10250000006800F03F041B48001F006800F48000D2
:1025100078B11A481749091F0968C1F38811A0FB4F
:1025200001700146224600233846FDF7BDFE0546F0
:102530000EE011480F49091F0968C1F38811A0FB7B
:1025400001700146224600233846FDF7ADFE0546E0
:102550000848001F0068C0F30140401C4600B5FB5E
:10256000F6F902E0DFF8109000BF00BF4846BDE872
:10257000F0870000083802400024F400001BB70078
:10258000F8B504460CB90120F8BD207800F0010030
:10259000002874D0F948006800F00C0004280DD021
:1025A000F648006800F00C00082813D1F348001F1B
:1025B000006800F48000B0F5800F0BD1EF480838B8
:1025C0000068C0F34040002859D06068002856D108
:1025D0000120D9E700BF6068B0F5803F08D1E74827
:1025E0000838006840F48030E449083908601EE08B
:1025F0006068B0F5A02F0DD1E0480838006840F4BD
:102600008020DE49083908600846006840F48030C0
:1026100008600CE0D9480838006820F48030D749B9
:10262000083908600846006820F48020086000BF70
:10263000606890B1FFF720FD054606E0FFF71CFD3E
:10264000401B642801D903209EE7CC480838006865
:10265000C0F340400028F1D011E0FFF70DFD054622
:1026600006E0FFF709FD401B642801D903208BE732
:10267000C24808380068C0F340400028F1D12078F3
:1026800000F0020002285FD1BC48006800F00C0096
:1026900058B1BA48006800F00C0008281CD1B748AF
:1026A000001F006800F48000B0B9B4480838006822
:1026B000C0F3400020B1E068012801D0012063E7A9
:1026C000AE480838006820F0F800216940EAC100EF
:1026D000AA490839086037E0E06800B30120A8493A
:1026E0000860FFF7C9FC054606E0FFF7C5FC401B84
:1026F000022801D9032047E7A04808380068C0F342
:1027000040000028F1D09D480838006820F0F8000B
:10271000216940EAC10099490839086014E00020A5
:1027200097490860FFF7A8FC054606E0FFF7A4FC00
:10273000401B022801D9032026E79048083800688A
:10274000C0F340000028F1D1207800F008000828EC
:102750002CD16069A8B101208A490860FFF78CFC80
:10276000054606E0FFF788FC401B022801D903203C
:102770000AE782486C300068C0F340000028F1D0BE
:1027800014E000207F490860FFF776FC054606E06C
:10279000FFF772FC401B022801D90320F4E67748BA
:1027A0006C300068C0F340000028F1D1207800F0C0
:1027B0000400042870D1002770483830006800F009
:1027C000805090B900BF002000906C4838300068FD
:1027D00040F080506949383108600846006800F0D0
:1027E0008050009000BF00BF01276748006800F4D8
:1027F0008070B0B96448006840F480706249086035
:10280000FFF73AFC054606E0FFF736FC401B0228BE
:1028100001D90320B8E65C48006800F48070002805
:10282000F2D000BFA068012808D154486830006881
:1028300040F001005149683108601DE0A06805289A
:102840000DD14E486830006840F004004B496831B3
:1028500008600846006840F0010008600CE0474846
:102860006830006820F0010044496831086008467B
:10287000006820F00400086000BFA068A8B1FFF75E
:10288000FBFB054609E0FFF7F7FB401B41F28831EF
:10289000884202D9032077E626E03848683000688D
:1028A000C0F340000028EED013E0FFF7E5FB05463B
:1028B00008E0FFF7E1FB401B41F28831884201D973
:1028C000032061E62D4868300068C0F3400000280E
:1028D000EFD1012F07D129483830006820F080500F
:1028E00026493831086000BFA069002845D0234838
:1028F000006800F00C0008285DD0A069022845D1CE
:1029000000201F490866FFF7B7FB054606E0FFF702
:10291000B3FB401B022801D9032035E617480838CD
:102920000068C0F340600028F1D1D4E907010843F2
:10293000616A40EA81110122A06AC2EB500041EABB
:1029400000412C20005D41EA00600C49091F08602D
:1029500001200B490866FFF78FFB054606E0FFF7ED
:102960008BFB401B022801D903200DE603480838E1
:102970000068C0F340600028F1D049E00838024008
:1029800000004742800E474200700040002021496D
:102990000866FFF771FB054606E0FFF76DFB401B7D
:1029A000022801D90320EFE51B480068C0F340600E
:1029B0000028F2D12CE0A069012800D1E4E51648F6
:1029C000001D0668A069012820D006F48001E06996
:1029D00081421BD106F03F01206A814216D147F6A1
:1029E000C0703040616AB0EB811F0FD106F44031F6
:1029F0000122A06AC2EB5000B1EB004F06D106F0F5
:102A000070612C20005DB1EB006F01D00120BBE5AF
:102A10000020B9E500004742003802407047704787
:102A200030B502460B4600BF92F83C00012801D1A8
:102A3000022030BD012082F83C0000BF022082F855
:102A40003D00106844681068816824F070041868BC
:102A5000044310684460184D1068A8421BD01068E9
:102A6000B0F1804F17D0154D1068A84213D0144D07
:102A70001068A8420FD0134D1068A8420BD0124D19
:102A80001068A84207D0114D1068A84203D0104D1D
:102A90001068A84205D121F08001586801431068F0
:102AA0008160012082F83D0000BF002082F83C00D8
:102AB00000BF00BFBDE7000000000140000400406F
:102AC00000080040000C00400004014000400140AC
:102AD0000018004010B504460CB9012010BD94F850
:102AE0003D0028B9002084F83C00204600F026F87C
:102AF000022084F83D00211D206802F0C7FA012061
:102B000084F8460000BF84F83E0001213F200155B3
:102B1000402001554120015500BF00BF012084F82D
:102B2000420043200155442001554520015500BF76
:102B3000012084F83D000020D0E7000038B50446AD
:102B40002D492068884218D100BF002000902B48F2
:102B5000006840F00100294908600846006800F05C
:102B60000100009000BF00BF002205211920FFF7DF
:102B700053FB1920FFF73CFB3CE0214920688842C9
:102B80001AD100BF002000901C48001F006840F0D0
:102B900002001A49091F08600846006800F0020098
:102BA000009000BF00BF002205211D20FFF734FB6D
:102BB0001D20FFF71DFB1DE012492068884219D136
:102BC00000BF002000900D48001F006840F040004A
:102BD0000A49091F08600846006800F0400000909C
:102BE00000BF00BF002205212B20FFF715FB2B2083
:102BF000FFF7FEFA38BD00000000014044380240F3
:102C00000004004000180040014691F83D000128F2
:102C100001D001207047022081F83D000868C0689B
:102C200040F001000B68D8601A4B086898421BD02E
:102C30000868B0F1804F17D0174B0868984213D03E
:102C4000164B086898420FD0154B086898420BD075
:102C5000144B0868984207D0134B0868984203D079
:102C6000124B086898420CD10868806800F007028F
:102C7000062A0CD00868006840F001000B68186054
:102C800005E00868006840F001000B68186000204B
:102C9000C0E70000000001400004004000080040C0
:102CA000000C0040000401400040014000180040BA
:102CB00001460868C06820F001000A68D06000BFC3
:102CC0000868006A41F21112104050B90868006AA1
:102CD0009210104028B90868006820F001000A68C6
:102CE000106000BF012081F83D00002070472DE9F1
:102CF000F04104460D46002700BF94F83C0001282F
:102D000002D10220BDE8F081012084F83C0000BF20
:102D1000022084F83D002068866826F0770626F4B5
:102D20007F46206886602868502833D00CDC202835
:102D300050D004DC00284BD0102851D149E0302875
:102D400049D040284CD139E060282DD0702807D0D8
:102D5000B0F5805F03D0B0F5005F41D10DE041E0F8
:102D6000D5E902136A68206802F015FA20688668BF
:102D700046F077062068866034E0D5E902136A6879
:102D8000206802F008FA2068806840F480402168DA
:102D9000886027E0EA686968206802F0EDFA50214F
:102DA000206802F003FA1DE0EA686968206802F012
:102DB000F6FA6021206802F0F9F913E0EA68696820
:102DC000206802F0D9FA4021206802F0EFF909E00A
:102DD00000BF00BF00BF2968206802F0E7F901E0EA
:102DE000012700BF00BF012084F83D0000BF002084
:102DF00084F83C0000BF384684E7704770B504464D
:102E00002068C5682068066906F00200022819D10A
:102E100005F00200022815D1401F21680861012039
:102E200020772068806900F0030018B12046FFF782
:102E3000E4FF05E0204600F0EDF8204600F0D8F968
:102E40000020207706F00400042819D105F00400C2
:102E5000042815D1C043216808610220207720682A
:102E6000806900F4407018B12046FFF7C6FF05E006
:102E7000204600F0CFF8204600F0BAF90020207775
:102E800006F00800082819D105F00800082815D117
:102E9000C04321680861042020772068C06900F0E1
:102EA000030018B12046FFF7A8FF05E0204600F018
:102EB000B1F8204600F09CF90020207706F01000C1
:102EC000102819D105F01000102815D1C043216831
:102ED0000861082020772068C06900F4407018B1AC
:102EE0002046FFF78AFF05E0204600F093F82046D1
:102EF00000F07EF90020207706F0010048B105F0CF
:102F0000010030B16FF0010021680861204600F037
:102F1000F7F906F08000802809D105F080008028AC
:102F200005D1C043216808612046FFF777FD06F010
:102F30004000402809D105F04000402805D1C04399
:102F400021680861204600F0D7FA06F0200020280A
:102F500009D105F02000202805D1C043216808616F
:102F60002046FFF75CFD70BD10B586B00446142105
:102F700001A8FDF7E3F92068B0F1804F1DD100BF33
:102F8000002000901F48006840F001001D490860C3
:102F90000846006800F00100009000BF00BF072055
:102FA00001900220029000200390049001200590DF
:102FB00001A91548FEF752FF21E014492068884214
:102FC0001DD100BF002000900E48006840F00800AE
:102FD0000C4908600846006800F00800009000BF37
:102FE00000BF4FF4E04001900220029000200390C7
:102FF00004900220059001A90548FEF72FFF06B0B6
:1030000010BD0000303802400000024000080040BF
:10301000000C024070472DE9F04104460D4616466B
:10302000002700BF94F83C00012802D10220BDE82F
:10303000F081012084F83C0000BF36B1042E1BD083
:10304000082E31D00C2E5ED145E02946206802F0D2
:10305000B7F82068806940F008002168886120681E
:10306000806920F0040021688861206880692969EE
:1030700008432168886148E02946206802F0D8F8B2
:103080002068806940F40060216888612068806958
:1030900020F480602168886120688069296940EA9D
:1030A00001202168886130E02946206802F0FEF89E
:1030B0002068C06940F008002168C8612068C069C4
:1030C00020F004002168C8612068C06929690843AC
:1030D0002168C86119E02946206802F023F92068B8
:1030E000C06940F400602168C8612068C06920F4AC
:1030F00080602168C8612068C069296940EA0120B0
:103100002168C86101E0012700BF00BF00BF0020A7
:1031100084F83C0000BF384689E710B504460CB976
:10312000012010BD94F83D0028B9002084F83C002F
:10313000204600F025F8022084F83D00211D20687B
:1031400001F0A4FF012084F8460000BF84F83E008F
:1031500001213F200155402001554120015500BF6C
:1031600000BF012084F8420043200155442001554E
:103170004520015500BF012084F83D000020D0E724
:1031800038B504462068B0F1804F0FD100BF002051
:1031900000901548006840F0010013490860084697
:1031A000006800F00100009000BF1BE00F4920689C
:1031B000884217D100BF002000900B48006840F003
:1031C0000400094908600846006800F00400009007
:1031D00000BF00BF002205211E20FFF71DF81E20A2
:1031E000FFF706F838BD00004038024000080040F4
:1031F0007047000070B504460D4615B994F83E00BE
:103200000BE0042D02D13F20005D06E0082D02D125
:103210004020005D01E04120005D012801D0012037
:1032200070BD1DB9022084F83E000EE0042D03D1CC
:1032300002213F20015508E0082D03D10221402042
:10324000015502E002214120015501222946206852
:1032500001F090FF23492068884203D0224920686A
:10326000884201D1012000E0002028B12068406C94
:1032700040F40040216848641A49206888421BD005
:103280002068B0F1804F17D018492068884213D0C9
:103290001749206888420FD01649206888420BD011
:1032A00011492068884207D013492068884203D01A
:1032B0001249206888420CD12068806800F0070617
:1032C000062E0CD02068006840F0010021680860DC
:1032D00005E02068006840F00100216808600020D7
:1032E0009EE700000000014000040140000400408F
:1032F00000080040000C0040004001400018004061
:103300007CB5044660492068884201D1FEF7BAFEC8
:103310005E49206888427CD15D480068401C5C4959
:10332000086008460068022873DB002008605948DE
:103330000068B0F9000000EE900AF8EEE00AB0EE86
:10334000600A5548D0ED000A544801F01FF954486E
:103350000068B0F9000000EE900AF8EEE00AB0EE66
:10336000600A5048D0ED000A4F4801F00FF94F486D
:103370000068B0F9000000EE900AF8EEE00AB0EE46
:10338000600A4B48D0ED000A4A4801F0FFF84A486D
:103390000068B0F9000000EE900AF8EEE00AB0EE26
:1033A000600A4648D0ED000A454801F0EFF845486C
:1033B0000068B0F9000000EE900AF8EEE00AB0EE06
:1033C000600A4148D0ED000A404801F0DFF840486B
:1033D0000068B0F9000000EE900AF8EEE00AB0EEE6
:1033E000600A3C48D0ED000A3B4801F0CFF8344D6C
:1033F00095ED080ABDEEC00A10EE105A2BB22D4D05
:1034000095ED080ABDEEC00A10EE105A2AB2264DFC
:1034100000E024E095ED080ABDEEC00A10EE105A57
:1034200029B21E4D95ED080ABDEEC00A10EE105AE5
:1034300028B2FDF73FF9284A92ED080ABDEEC00A0E
:1034400010EE102A11B2214A92ED080ABDEEC00A10
:1034500010EE102A10B200231A46FDF703F91F4997
:10346000206888420FD11E4800881E490988CDE98E
:1034700000101D4803881D4802881D4801881D480A
:10348000008801F0A1FB7CBD00200040000400404A
:1034900000000020CC000020B4000020AC5100202F
:1034A000D0000020B8000020F4510020D4000020FB
:1034B000BC0000203C520020D8000020C0000020AA
:1034C00084520020DC000020C4000020CC520020E8
:1034D000E0000020C800002014530020000001403C
:1034E000B2000020B0000020AE000020AC000020A0
:1034F000AA000020A80000207047F8B504460E4638
:10350000174694F8420020282ED106B10FB90120A9
:10351000F8BD01202063002060633A463146204612
:1035200002F02CFA0546EDB9206B012819D100BF35
:10353000002000902068006800902068406800909B
:1035400000BF00BF00BF00BF21680C3151E8001F61
:1035500041F0100021680C3141E80002002AF3D14B
:1035600000E001252846D3E70220D1E770477047E5
:103570002DE9F84F0446206805682068C668206871
:1035800047694FF00009CA4605F00F09B9F1000F6D
:103590000AD105F0200038B106F0200020B1204605
:1035A00002F057F8BDE8F88FB9F1000F7CD007F0B2
:1035B000010018B906F49070002875D005F00100DC
:1035C00030B106F4807018B1606C40F001006064A6
:1035D00005F0040030B107F0010018B1606C40F054
:1035E0000200606405F0020030B107F0010018B17C
:1035F000606C40F00400606405F0080048B106F01B
:10360000200010B907F0010018B1606C40F008000C
:103610006064606C002846D005F0200028B106F0F8
:10362000200010B1204602F014F820684069C0F371
:10363000801A606C00F0080010B9BAF1000F2DD0AC
:10364000204601F0ADFF2068406900F040004028AE
:1036500020D100BF00BF2168143151E8001F21F0C4
:1036600040002168143141E80002002AF3D100BF74
:10367000E06B50B17748E16B0865E06BFEF7F9F954
:1036800088B1E06B016D88470DE02046FFF76FFFC2
:1036900009E009E02046FFF76AFF04E02046FFF753
:1036A00066FF002060647DE7206B012878D105F07B
:1036B0001000002874D006F010000028FAD000BFD7
:1036C000002000902068006800902068406800900A
:1036D00000BF00BF2068406900F04000402860D172
:1036E000E06B006840681FFA80F8B8F1000F56D010
:1036F000A08D404553DDA4F82E80E06BC069B0F585
:10370000807F43D000BF00BF21680C3151E8001F0B
:1037100021F4807021680C3141E80002002AF3D1C5
:1037200000BF00BF00BF2168143151E8001F21F025
:1037300001002168143141E80002002AF3D100BFE2
:1037400000BF00BF2168143151E8001F21F0400084
:103750002168143141E80002002AF3D100BF202083
:1037600084F842000020206300BF00BF21680C31B4
:1037700051E8001F21F0100021680C3141E80002DF
:10378000002AF3D100BFE06BFEF71DF90220606351
:10379000A08DE28D801A81B22046FFF7E7FE01E797
:1037A00042E0A08DE18D401A1FFA80F8E08DD0B381
:1037B000B8F1000F37D000BF00BF21680C3151E8CD
:1037C000001F21F4907021680C3141E80002002AAA
:1037D000F3D100BF00BF00BF2168143151E8001FC2
:1037E00021F001002168143141E80002002AF3D1E0
:1037F00000BF202084F842000020206300BF00BFEB
:1038000021680C3151E8001F21F0100021680C31B3
:1038100041E80002002AF3D100BF02206063414664
:103820002046FFF7A3FEBDE605F0800030B106F0AC
:10383000800018B1204602F005F9B3E605F040001B
:1038400030B106F0400018B1204601F0DFFEA9E6D5
:1038500000BFA7E66554000810B504460CB9012066
:1038600010BDA06900B100E000BF94F8410028B984
:10387000002084F84000204600F02AF8242084F834
:1038800041002068C06820F400502168C8602046CC
:1038900001F05EFF2068006920F490402168086113
:1038A0002068406920F02A00216848612068C068CB
:1038B00040F400502168C86000206064202084F833
:1038C000410084F842000020606300BFC8E70000A8
:1038D00010B586B00446142101A8FCF72FFD8349DA
:1038E0002068884239D100BF0020009080480068DD
:1038F00040F080407E4908600846006800F0804043
:10390000009000BF00BF00BF002000907848103832
:10391000006840F0100076491039086008460068D9
:1039200000F01000009000BF00BF4FF4C070019085
:1039300002200290002003900320049008200590AC
:1039400001A96C48FEF78AFA002205215220FEF7F1
:1039500063FC5220FEF74CFCC6E0674920688842B1
:103960007DD100BF002000906148006840F0004019
:103970005F4908600846006800F00040009000BF02
:1039800000BF00BF0020009059481038006840F088
:1039900010005749103908600846006800F0100010
:1039A000009000BF00BF032001900220029003900E
:1039B000032004900820059001A94E48FEF74EFA16
:1039C0004E484F4908600005486000214C4881601E
:1039D000C1604FF4806101610021416181614FF458
:1039E0008071C1614FF44031016200214162FEF7F4
:1039F00075F908B1FCF7FCFF00BF4148E063846340
:103A000000BF3E4890383F4908604FF02060486052
:103A100040213C4881600021C1604FF48061016118
:103A20000021416181614FF48071C1614FF44031E7
:103A3000016200214162FEF751F908B1FCF7D8FF9D
:103A400000BF3048A063846300BF002205215320DB
:103A5000FEF7E2FB5320FEF7CBFB45E0FFE72A49E8
:103A60002068884240D100BF002000902048001DFF
:103A7000006840F020001E49091D086008460068E3
:103A800000F02000009000BF00BF00BF00200090A9
:103A900017481038006840F0400015491039086098
:103AA0000846006800F04000009000BF00BF4FF4DF
:103AB000804001900220029003900320049008208F
:103AC000059001A91148FEF7C9F94FF40070019063
:103AD000022002900020039003200490082005900B
:103AE00001A90A48FEF7BAF906B010BD00780040F7
:103AF0004038024000100240007C0040A0600240BC
:103B0000A40700200408002000140140001802400F
:103B1000704770472DE9F84F04460E461746994600
:103B20004FF0000A94F84100202850D106B117B98F
:103B30000120BDE8F88F00206064212084F8410056
:103B4000FEF79AFA8246A784E784A068B0F5805F02
:103B500004D1206910B90025B04602E035464FF087
:103B600000081EE05346002280212046CDF8009038
:103B700001F098FF20B1202084F841000320D8E70D
:103B800045B9B8F80000C0F308002168486008F1A2
:103B9000020803E02878216848606D1CE08C401E14
:103BA000E084E08C0028DDD15346002240212046ED
:103BB000CDF8009001F076FF20B1202084F841007C
:103BC0000320B6E7202084F841000020B1E702205E
:103BD000AFE710B5034693F84100202813D101B197
:103BE0000AB9012010BD19629A84DA840020586451
:103BF000212083F841001868C06840F080001C68EC
:103C0000E0600020EEE70220ECE7704740F2DC5075
:103C10000649088006490880064908800649088048
:103C2000064908800649088070470000A800002067
:103C3000AA000020AC000020AE000020B000002050
:103C4000B20000204FF47A700649088006490880C7
:103C50000649088006490880064908800649088008
:103C600070470000A8000020AA000020AC0000203F
:103C7000AE000020B0000020B20000204FF4FA6037
:103C80000A49088040100A49088040F272600949D8
:103C9000088040F24650084908804FF47A7007497E
:103CA000088040000649088070470000A8000020F6
:103CB000AA000020AC000020AE000020B0000020D0
:103CC000B20000204FF47A70094908800949088041
:103CD00040F24C400849088040F2DC500749088017
:103CE0004FF4FA60064908800649088070470000D2
:103CF000A8000020AA000020AC000020AE00002098
:103D0000B0000020B20000204FF4FA60094908809A
:103D10000949088040F2DC500849088040F26C7084
:103D2000074908804FF47A700649088006490880E0
:103D300070470000A8000020AA000020AC0000206E
:103D4000AE000020B0000020B20000204FF4FA6066
:103D50000649088006490880064908800649088007
:103D6000064908800649088070470000A800002026
:103D7000AA000020AC000020AE000020B00000200F
:103D8000B200002040F6C4100649088006490880A9
:103D900006490880064908800649088006490880C7
:103DA00070470000A8000020AA000020AC000020FE
:103DB000AE000020B0000020B200002040F2E2403F
:103DC000084908800849088040F2DC50074908800B
:103DD0000749088040F2D6600649088006490880F5
:103DE00070470000A8000020AA000020AC000020BE
:103DF000AE000020B0000020B200002040F2D660EB
:103E0000084908800849088040F2DC5007490880CA
:103E10000749088040F2E2400649088006490880C8
:103E200070470000A8000020AA000020AC0000207D
:103E3000AE000020B0000020B200002000BFFEE76E
:103E400010B50E480E4908600320486000210C4858
:103E50008160C1604FF4102101614FF40011416194
:103E60000021017641768176C17601774177FDF7B1
:103E700093FB08B1FCF7BCFD10BD000000640040DE
:103E80000401002010B50E480E4908600320486068
:103E900000210C488160C1604FF4102101614FF492
:103EA000001141610021017641768176C17601776A
:103EB0004177FDF771FB08B1FCF79AFD10BD0000DA
:103EC000006800402C01002008B500BF00200090D1
:103ED0000E48006840F400100C490860084600686D
:103EE00000F40010009000BF00BF002205210B204D
:103EF000FEF792F90B20FEF77BF900220521112035
:103F0000FEF78AF91120FEF773F908BD3038024038
:103F100010B5074A0021074802F004F80649086076
:103F2000064A0021064801F0FDFF0649086010BD61
:103F3000487F0008C90E000808000020247F000800
:103F4000650700080400002000B587B0142102A80E
:103F5000FCF7F4F900BF002001905348006840F0DE
:103F60001000514908600846006800F010000190F8
:103F700000BF00BF00BF002001900846006840F06D
:103F8000020008600846006800F00200019000BFCF
:103F900000BF00BF002001900846006840F04000CC
:103FA00008600846006800F04000019000BF00BFB4
:103FB00000BF002001900846006840F00100086042
:103FC0000846006800F00100019000BF00BF00BF7C
:103FD000002001900846006840F00800086008468C
:103FE000006800F00800019000BF00BF00BF002083
:103FF00001900846006840F08000086008460068AC
:1040000000F08000019000BF00BF00BF00200190C1
:104010000846006840F0200008600846006800F08C
:104020002000019000BF00BF01223C211F48FEF785
:104030001DF800224FF400611D48FEF717F800221A
:104040004FF480411B48FEF711F83C2002900120FC
:10405000039000200490059002A91448FDF7FEFE8D
:1040600004200290002003900220049002A912482C
:10407000FDF7F4FE4FF40060029001200390002051
:104080000490059002A90A48FDF7E8FE4FF480402D
:1040900002900120039000200490059002A9054899
:1040A000FDF7DCFE07B000BD30380240001C0240C6
:1040B0000010024000140240000402401FB500201E
:1040C00000900190029003900E480F490860A720CD
:1040D000486000210C48816040F2E731C160002156
:1040E00001618161FEF7F6FC08B1FCF781FC4FF439
:1040F0008050009069460448FEF7F9FD08B1FCF7CE
:1041000077FC1FBD001800407402002000B587B086
:1041100000200390049005900690019002901548AD
:1041200015490860A720486000211348816041F2CA
:104130008731C1600021016141618161FEF7CAFCE4
:1041400008B1FCF755FC4FF48050039003A90A48CE
:10415000FEF7CDFD08B1FCF74BFC0020019002906A
:1041600001A90548FEF75CFC08B1FCF741FC07B06B
:1041700000BD0000000001405401002000B589B0DE
:104180000020079008901C216846FCF7D7F84FF0F4
:104190008040204908605320486000211D4881600C
:1041A00040F6B731C160002101618161FEF7B5FFC2
:1041B00008B1FCF71DFC00200790089007A91548DE
:1041C000FEF72EFC08B1FCF713FC6020009040F2D3
:1041D000DC500190002002900490002269460D48B6
:1041E000FEF719FF08B1FCF703FC042269460948F1
:1041F000FEF711FF08B1FCF7FBFB082269460548F2
:10420000FEF709FF08B1FCF7F3FB0248FEF7ACFE2E
:1042100009B000BD9C01002000B587B000200390CC
:10422000049005900690019002901448144908608B
:1042300041F2873048600021114881605321C160FC
:10424000002101618161FEF745FC08B1FCF7D0FB5C
:104250004FF48050039003A90948FEF748FD08B1C8
:10426000FCF7C6FB00200190029001A90448FEF76C
:10427000D7FB08B1FCF7BCFB07B000BD0004004051
:10428000E401002000B589B00020079008901C21AF
:104290006846FCF753F821482149086053204860DC
:1042A00000211F48816040F6B731C16000210161E3
:1042B0008161FEF732FF08B1FCF79AFB00200790FE
:1042C000089007A91648FEF7ABFB08B1FCF790FB76
:1042D0006020009040F2DC50019000200290049099
:1042E000002269460E48FEF796FE08B1FCF780FBF7
:1042F000042269460A48FEF78EFE08B1FCF778FBF7
:10430000082269460648FEF786FE08B1FCF770FBF6
:104310000348FEF729FE09B000BD00000008004078
:104320002C02002010B50B480B4908604FF4E13017
:104330004860002108488160C16001610C21416131
:1043400000218161C161FFF787FA08B1FCF750FBDA
:1043500010BD000000780040CC06002010B50B48CE
:104360000B4908604FF4E130486000210848816043
:10437000C16001610C21416100218161C161FFF7D0
:104380006BFA08B1FCF734FB10BD0000007C004064
:104390001407002010B51548154908604FF4E130A6
:1043A0004860002112488160C16001610C214161B7
:1043B00000218161C161FFF74FFA08B1FCF718FBDA
:1043C0000B480C4908600C4A4FF4FA710B4800F096
:1043D000F9FC0B4A4FF4FA710A4800F0F3FC074865
:1043E000044948600748886010BD0000001401407F
:1043F0005C070020D4020020E0020020BC02002064
:10440000D5040020C802002000BFFEE710B5FCF76D
:104410007BF9012204213348FDF728FE01220821FF
:104420003048FDF723FE012210212E48FDF71EFE25
:10443000012220212B48FDF719FE0020FCF762FD28
:10444000294908600120FCF75DFD28490860022029
:10445000FCF758FD264908600320FCF753FD254969
:1044600008600420FCF74EFD234908600520FCF796
:1044700049FD22490860DFED220A9FED220A224A07
:104480000021224800F050F8DFED1D0A9FED1D0AC3
:104490001D4A00211E4800F047F8DFED190A9FED84
:1044A000190A194A00211B4800F03EF8DFED140AF2
:1044B0009FED140A144A0021174800F035F8DFED8B
:1044C000100A9FED100A104A0021144800F02CF841
:1044D000DFED0B0A9FED0B0A0B4A0021104800F09C
:1044E00023F810BD001C0240CC000020D0000020AA
:1044F000D4000020D8000020DC000020E0000020D4
:104500000000FA44007094468C7F0008AC510020F3
:10451000F45100203C52002084520020CC52002054
:104520001453002000BFFEE700B102B970470170CC
:1045300092ED001A80ED011A92ED011A80ED021A37
:1045400092ED021A80ED031A80ED040AC0ED050A0F
:104550009FED0D1A80ED0E1A80ED0D1A80ED0C1AEC
:104560009FED091A80ED111A80ED101A80ED0F1AD7
:104570009FED051A80ED081A80ED0B1A80ED0A1ADE
:1045800080ED091A00BFD1E700000000B0EE401A2C
:1045900010B99FED790A704790ED100A80ED110A6D
:1045A00090ED0F0A80ED100A80ED071AC0ED060AA3
:1045B00030EEC10A80ED0F0A0178002975D190ED27
:1045C000010AD0ED0F1A20EE210A80ED090A90EDC4
:1045D0000A0AD0ED021A90ED0F2A01EE820A80ED50
:1045E0000A0A90ED0D0A80ED0E0A90ED0C0A80ED9E
:1045F0000D0A90ED0F0AD0ED101A30EE610A80ED31
:104600000C0A90ED030AD0ED0C1A20EE210A80ED81
:104610000B0A90ED0A0AD0ED051AB4EEE10AF1EEAC
:1046200010FA04DD90ED050A80ED0A0A10E090ED25
:104630000A0AD0ED051AF1EE611AB4EEE10AF1EEC4
:1046400010FA05D290ED050AB1EE400A80ED0A0A93
:1046500090ED090AD0ED0A1A30EE210AD0ED0B1ABE
:1046600030EE210A80ED080A90ED080AD0ED041A18
:10467000B4EEE10AF1EE10FA04DD90ED040A80EDEB
:10468000080A76E090ED080AD0ED041AF1EE611AFE
:10469000B4EEE10AF1EE10FA6BD290ED040AB1EE3D
:1046A000400A80ED080A64E0FFE70178012960D143
:1046B00090ED0F0AD0ED101A30EE610AD0ED011A1C
:1046C00020EE210A80ED090A90ED020AD0ED0F1AC2
:1046D00020EE210A80ED0A0A90ED0D0A80ED0E0A07
:1046E00090ED0C0A80ED0D0A90ED0F0AD0ED101A36
:1046F000B0EE002A02EE610AD0ED111A30EE210A66
:1047000080ED0C0A90ED030AD0ED0C1A20EE210A80
:1047100080ED0B0A90ED090AD0ED0A1A30EE210A5D
:10472000D0ED0B1A30EE210AD0ED081A30EE210A36
:1047300080ED080A90ED080AD0ED041AB4EEE10A03
:10474000F1EE10FA04DD90ED040A80ED080A10E0A5
:1047500090ED080AD0ED041AF1EE611AB4EEE10A08
:10476000F1EE10FA05D290ED040AB1EE400A80EDA8
:10477000080A90ED080A0EE7000000001D48807945
:104780001D4908731B48407948731A48007A88739A
:104790001848C079C8731748807A08741548407A59
:1047A00048741448007B88741248C07AC874114851
:1047B000407B08720F48807B48720E48C07B88722D
:1047C0000C48007CC8720B48407C08750948807C06
:1047D0004875084890F902000880064890F90100E1
:1047E0004880044890F904008880024890F903004A
:1047F000C8807047805100209451002010B5D848DF
:10480000407A50B1D648C07A38B1D548007B20B143
:10481000D348007C08B100F083FBD148B0F9060012
:10482000052871DBCF48007870B9DFEDCF2A9FED06
:10483000CE2ADFEDCE1A9FEDCD1ADFEDCD0A9FED2A
:10484000CC0A01F08BF9E5E0C648007801280ED1CA
:10485000DFEDC82A9FEDC82ADFEDC81A9FEDC81A00
:10486000DFEDC40A9FEDC70A01F078F9D2E0BD4838
:10487000007802280ED1DFEDC02A9FEDBE2ADFEDC1
:10488000C01A9FEDBE1ADFEDBD0A9FEDBA0A01F016
:1048900065F9BFE0B348007803280ED1DFEDBA2AEE
:1048A0009FEDBA2ADFEDB81A9FEDB91ADFEDB90A0C
:1048B0009FEDB40A01F052F9ACE0AA480078042850
:1048C0000ED1DFEDB22A9FEDB02ADFEDB11A9FEDD8
:1048D000AE1ADFEDAC0A9FEDAF0A01F03FF999E0A7
:1048E000A048007805280DD1DFEDA22A9FEDAA2A65
:1048F000DFEDA41A9FEDA91ADFED9E0A9FEDA60A2F
:1049000001F02CF986E0FFE79548B0F9060010F1B8
:10491000050F71DC9348007870B9DFEDA12A9FED97
:10492000A02ADFED9F1A9FED9E1ADFED9D0A9FEDF5
:104930009C0A01F013F96DE08A48007801280ED135
:10494000DFED952A9FED972ADFED951A9FED961AD8
:10495000DFED910A9FED950A01F000F95AE08148D8
:10496000007802280ED1DFED8F2A9FED8B2ADFED34
:104970008E1A9FED8B1ADFED8D0A9FED870A01F0ED
:10498000EDF847E07748007803280ED1DFED832A61
:104990009FED872ADFED811A9FED861ADFED860AEB
:1049A0009FED820A01F0DAF834E06E4800780428BE
:1049B0000ED1DFED7F2A9FED792ADFED7E1A9FED84
:1049C000771ADFED7A0A9FED7C0A01F0C7F821E043
:1049D0006448007805281DD1DFED6F2A9FED652A18
:1049E000DFED6E1A9FED671ADFED6B0A9FED610A2E
:1049F00001F0B4F80EE0FFE7DFED702A9FED6F2ABB
:104A0000DFED6E1A9FED6D1ADFED6C0A9FED6B0AFC
:104A100001F0A4F85248807C012802D1FFF7B2F9D6
:104A20005FE04F48407C01280DD14D48807A012835
:104A300009D04B48C07A012805D0012049490870A7
:104A4000FFF7BCF94DE04648C07C01280DD1444831
:104A5000807A012809D04248C07A012805D0022076
:104A600040490870FFF7CAF93BE03D48407C012807
:104A700009D13B48C07A012805D103203949087083
:104A8000FFF720F92DE03648C07C012809D13448D1
:104A9000C07A012805D1042032490870FFF734F9A3
:104AA0001FE02F48007C012805D105202D49087002
:104AB000FFF7E4F815E02A48407B012802D1FFF710
:104AC000C1F80EE02648C07B012802D1FFF73EF96D
:104AD00007E03B48008820B9002022490870FFF712
:104AE00095F81F48007A012819D11D48407A0128FD
:104AF00015D11B48807A012811D11948C07A0128A4
:104B00000DD11748407B012809D11548C07C0128E8
:104B100005D001202A490880FF201249087010485A
:104B2000007A012816D10E48407A012812D10C488B
:104B3000807A01280ED10A48C07A01280AD1084893
:104B4000407B012806D00648C07C012802D1002005
:104B50001B490880FBF7C8FEFCF75AF910BD00009E
:104B600094510020E60000200000824200008C42A8
:104B70000000E642000002430000C8420000F0428C
:104B80000000BE420000DC4200000C430000B442C2
:104B90000000704200001643000002C300000CC376
:104BA0000000F0C20000C8C20000BEC20000DCC2AB
:104BB0000000B4C2000070C2000016C30000000074
:104BC000E400002070470000F0B5DDE90545544ED3
:104BD0003668864205D2524E36680A36504F3E60DD
:104BE0000BE04F4E3668864205D94D4E36680A3E78
:104BF0004B4F3E6001E04A4E36684FF08046F66B00
:104C00008E4207D24FF08046F66B0A364FF080474F
:104C1000FE630FE04FF08046F66B8E4207D94FF0EF
:104C20008046F66B0A3E4FF08047FE6302E04FF08D
:104C30008046F66B3A4E361F3668964207D2384E9B
:104C4000361F36680A36364F3F1F3E600FE0344E3F
:104C5000361F3668964207D9314E361F36680A3EEF
:104C60002F4F3F1F3E6002E02D4E361F36684FF03B
:104C70008046B66B9E4207D24FF08046B66B0A362E
:104C80004FF08047BE630FE04FF08046B66B9E4208
:104C900007D94FF08046B66B0A3E4FF08047BE639F
:104CA00002E04FF08046B66B1D4E083E3668A642C5
:104CB00007D21B4E083E36680A36194F083F3E6041
:104CC0000FE0174E083E3668A64207D9144E083E3C
:104CD00036680A3E124F083F3E6002E0104E083E22
:104CE00036684FF08046766BAE4207D24FF0804672
:104CF000766B0A364FF080477E630FE04FF08046B8
:104D0000766BAE4207D94FF08046766B0A3E4FF085
:104D100080477E6302E04FF08046766BF0BD000076
:104D20003C08004030B50446204600F01CF805461B
:104D3000204600F003F8281A80B230BD00B50246C4
:104D40009088D188884209DD104600F00CF89188DF
:104D5000D388C91A491E401A80B200BDD0889188F4
:104D6000401A80B2F9E701460889401E80B27047B8
:104D7000F0B506463046FFF7E1FF07460025002460
:104D800006E0A1B2304600F007F82844C5B2641C22
:104D9000BC42F6DBE8B2F0BD70B504460D462046D5
:104DA000FFF7CCFFA84201DC002070BDA08828449A
:104DB000401C218990FBF1F201FB120086B22068B1
:104DC000805DF2E730B50B46026000218180C18032
:104DD000591C0181002104E0002405686C544C1C1E
:104DE000A1B204898C42F7DC30BD10B504462046E0
:104DF000FFF798FF02462046FFF7B5FF824201D138
:104E0000012010BD0020FCE710B504462046FFF746
:104E100089FF08B9012010BD0020FCE730B5044629
:104E20002046FFF7E2FF08B1002030BDA088401CFB
:104E3000218990FBF1F201FB1200A080A18820687B
:104E4000455C0020A288216888542846EDE730B5EB
:104E500004460D462046FFF7D7FF10B12046FFF766
:104E6000DDFFE088401C218990FBF1F201FB12007C
:104E7000E080E1882068455430BD10B504462046E6
:104E8000FFF7CCFF10BD30B504460D46294620463D
:104E9000FFF7DDFF30BDF0B507460D46164600248E
:104EA00005E0295D3846FFF7D2FF601C84B2B442AA
:104EB000F7DBF0BD33B5044601AD0222294620469A
:104EC000FFF7E9FF3CBD33B5044601AD0222294698
:104ED0002046FFF7E0FF3CBD10B500210D48FEF76E
:104EE00089F904210B48FEF785F908210948FEF7E6
:104EF00081F900210848FEF77DF904210648FEF7F4
:104F000079F908210448FEF775F9FF200349086084
:104F100010BD00002C0200209C010020FC0000209D
:104F200010B540F2DC50074908800749088007495E
:104F30000880074908800749088007490880FFF76B
:104F4000CBFF10BDB2000020B0000020AE0000205A
:104F5000AC000020AA000020A800002010B54FF0EF
:104F6000E020006902F088FD012801D002F0D2F9AA
:104F700010BD000000B593B0302107A8FBF7DEF9A3
:104F8000142102A8FBF7DAF900BF002001902448A1
:104F9000006840F08050224908600846006800F030
:104FA0008050019000BF00BF00BF002001901D484D
:104FB000006840F440401B4908600846006800F45F
:104FC0004040019000BF00BF0120079000040890FE
:104FD00002200D9041050E9106210F91A8211091FC
:104FE000022111910421129107A8FDF7C9FA08B115
:104FF000FBF7FEFC0F20029002200390002004909B
:105000004FF4A05005904FF480500690052102A85F
:10501000FDF754F908B1FBF7EBFC13B000BD00003D
:1050200040380240007000400348006840F47000BF
:10503000014908607047000088ED00E010B50248A3
:10504000FDF7DCFE10BD00005401002010B5024841
:10505000FDF7D4FE10BD0000E401002010B50248A9
:10506000FDF7CCFE10BD00002C02002010B5024858
:10507000FDF7C4FE10BD00007402002010B5024808
:10508000FDF7BCFE10BD00006408002010B50268EA
:105090002D4B98420ED0B0F1804F0BD02B4B984245
:1050A00008D02B4B984205D02A4B984202D02A4B6D
:1050B000984203D122F070024B681A43224B984267
:1050C00020D0B0F1804F1DD0204B98421AD0204BF9
:1050D000984217D01F4B984214D01F4B984211D0C2
:1050E0001E4B98420ED01E4B98420BD01D4B98423F
:1050F00008D01D4B984205D01C4B984202D01C4B47
:10510000984203D122F44072CB681A4322F0800304
:105110004C6943EA040202608B68C3620B688362D5
:10512000094B984202D00C4B984201D10B690363A2
:1051300001234361036903F001031BB1036923F0F9
:105140000103036110BD00000000014000040040A5
:1051500000080040000C00400004014000400140F5
:10516000004401400048014000180040001C00407D
:105170000020004030B501F01F05012404FA05F3BA
:10518000046A9C430462046A01F01F0502FA05F5F3
:105190002C43046230BD30B50C46816821F47F4158
:1051A00042EA032525432943816030BD0A468168D0
:1051B00021F0700142F0070319438160704700003D
:1051C00030B5026A056A25F0010505624368846905
:1051D00024F0700424F003040D682C4322F0020232
:1051E0008D682A43104DA84200D103E00F4DA8421C
:1051F00006D100BF22F00802CD682A4322F0040243
:10520000094DA84202D0094DA84207D123F480736A
:1052100023F400734D692B438D692B4343608461F4
:105220004D684563026230BD00000140000401404A
:1052300030B5026A056A25F0100505624368846985
:1052400024F4E04424F440740D6844EA052422F078
:1052500020028D6842EA0512124DA84200D103E0F7
:10526000114DA84207D100BF22F08002CD6842EA6A
:10527000051222F040020B4DA84202D00A4DA8426E
:1052800009D123F4806323F400634D6943EA850365
:105290008D6943EA8503436084614D6885630262DA
:1052A00030BD0000000001400004014030B5026A3A
:1052B000056A25F4807505624368C46924F07004AA
:1052C00024F003040D682C4322F400728D6842EA36
:1052D0000522124DA84200D103E0114DA84207D18A
:1052E00000BF22F40062CD6842EA052222F4806207
:1052F0000A4DA84202D00A4DA84209D123F4805396
:1053000023F400534D6943EA05138D6943EA0513FD
:105310004360C4614D68C563026230BD0000014056
:105320000004014030B5036A056A25F48055056222
:105330004468C26922F4E04222F440720D6842EAF5
:10534000052223F400538D6843EA0533084DA84233
:1053500002D0084DA84204D124F480444D6944EAA7
:1053600085144460C2614D680564036230BD00006D
:10537000000001400004014030B50B461446026AAB
:10538000056A25F001050562816921F0F00141EA15
:10539000041122F00A021A438161026230BD30B565
:1053A0000B461446026A056A25F0100505628169FC
:1053B00021F4704141EA043122F0A00242EA0312D2
:1053C0008161026230BD000001B5034900980860A8
:1053D0000248FDF719FC08BDA4000020740200205B
:1053E00010B50020024908600248FDF761FC10BDBD
:1053F000A4000020740200200348006808B90120BE
:1054000070470020FCE70000A400002001B503491C
:105410000098086000F004F808BD0000A400002017
:1054200010B50648FDF7F0FB00BF054800680028EE
:10543000FBD10248FDF73CFC10BD000074020020C7
:10544000A400002010B50248FEF792F810BD00003D
:10545000CC06002010B50248FEF78AF810BD000007
:105460001407002070B50546AC6B0020E085E08491
:105470002046FEF77CF870BD70B506460025B46B7B
:1054800020684069C0F3C01594F84100212805D177
:1054900025B10020E084204600F0C8F8206840696B
:1054A000C0F3801594F84200222805D125B10020D0
:1054B000E085204600F074F8606C40F010006064F5
:1054C0002046FEF754F870BD70B50546AC6B2868F1
:1054D000006800F48070002842D1E08500BF00BF62
:1054E00021680C3151E8001F21F4807021680C31D3
:1054F00041E80002002AF3D100BF00BF00BF2168CD
:10550000143151E8001F21F001002168143141E8F5
:105510000002002AF3D100BF00BF00BF2168143190
:1055200051E8001F21F040002168143141E80002D9
:10553000002AF3D100BF202084F84200206B01280C
:105540000ED100BF00BF21680C3151E8001F21F0CF
:10555000100021680C3141E80002002AF3D100BF9D
:1055600000206063206B012804D1A18D2046FDF747
:10557000FDFF02E02046FEF7CBFA70BD70B5054690
:10558000AC6B01206063206B012805D1A08D410820
:105590002046FDF7EBFF02E02046FEF7BAFA70BDA9
:1055A00000BF00BF02680C3252E8002F22F4907155
:1055B00002680C3242E80013002BF3D100BF00BF99
:1055C00000BF0268143252E8002F22F00101026885
:1055D000143242E80013002BF3D100BF016B012904
:1055E0000ED100BF00BF02680C3252E8002F22F03B
:1055F000100102680C3242E80013002BF3D100BF07
:10560000202180F8421000210163704710B5044644
:105610002068C06820F040002168C860202084F81D
:1056200041002046FEF7F1FA002010BD00BF00BF88
:1056300002680C3252E8002F22F0C00102680C32DE
:1056400042E80013002BF3D100BF202180F8411065
:105650007047F8B5044694F84200222875D1A06836
:10566000B0F5805F0CD1206950B90025A66A20688A
:105670004068C0F308003080A06A801CA06215E07A
:10568000A56A0026A068B0F5805F03D0A06828B99D
:10569000206918B920684068287004E020684068D4
:1056A00000F07F002870A06A401CA062E08D401EC0
:1056B00080B2E085002846D12068C06820F0200034
:1056C0002168C8602068C06820F480702168C860C4
:1056D0002068406920F0010021684861202084F89A
:1056E000420000206063206B012826D10020206347
:1056F00000BF00BF21680C3151E8001F21F01000ED
:1057000021680C3141E80002002AF3D100BF206873
:10571000006800F0100010280AD100BF002000909F
:1057200020680068009020684068009000BF00BFBB
:10573000A18D2046FDF71AFF02E02046FEF7E8F9AA
:105740000020F8BD01E00020FBE70220F9E700009F
:105750002DE9F84F04462068006920F44050E168C4
:105760000843216808612169A0680843616908430A
:10577000E169084300902068C06849F20C618843E1
:10578000009908432168C8602068406920F440708F
:10579000A16908432168486176492068884203D09E
:1057A00075492068884203D1FCF782FE814602E0F9
:1057B000FCF76EFE8146E069B0F5004F6CD1022027
:1057C0006168A0FB015003461920A9FB0070014647
:1057D0002A463846FAF768FD6421B0FBF1F04FEA3B
:1057E000001A02206168A0FB01510B461920A9FB99
:1057F00000712A463846FAF757FD83460220616851
:10580000A0FB015003461920A9FB00712A46384627
:10581000FAF74AFD6421B0FBF1F000EBC00101EBA7
:105820000010ABEB8000322101EBC0006421B0FB23
:10583000F1F000F0F8000AEB400A02206168A0FBDA
:10584000015003461920A9FB007001462A4638463C
:10585000FAF72AFD834602206168A0FB0150034647
:105860001920A9FB00712A463846FAF71DFD64216C
:10587000B0FBF1F000EBC00101EB0010ABEB8000DE
:10588000322101EBC0006421B0FBF1F000F0070011
:105890005044216888606AE004206168A0FB0150E0
:1058A00003461920A9FB007001462A463846FAF73C
:1058B000FBFC824604206168A0FB015003461920CE
:1058C000A9FB007001462A463846FAF7EDFC642130
:1058D000B0FBF1F000EBC00101EB0010AAEB80007F
:1058E000322101EB00106421B0FBF1F000F0F00A6E
:1058F00004206168A0FB017003461920A9FB005138
:105900003A462846FAF7D0FC6421B0FBF1F00AEBE6
:10591000001A04206168A0FB01510B461920A9FB65
:1059200000712A463846FAF7BFFC834604206168B6
:10593000A0FB015003461920A9FB007001462A462E
:105940003846FAF7B1FC6421B0FBF1F000EBC0017E
:1059500001EB0010ABEB8000322101EB0010642161
:10596000B0FBF1F000F00F00504421688860BDE802
:10597000F88F0000001001400014014077B581B09D
:10598000044615460298A062A58500206064222086
:1059900084F842002848E16BC8632848E16B08643A
:1059A0002748E16BC8640020E16B086502AE3268ED
:1059B0002368191D2B46E06BFCF706FA00BF002098
:1059C000009020680068009020684068009000BF48
:1059D00000BF206970B100BF00BF21680C3151E8E1
:1059E000001F41F4807021680C3141E80002002A58
:1059F000F3D100BF00BF00BF2168143151E8001F80
:105A000041F001002168143141E80002002AF3D17D
:105A100000BF00BF00BF2168143151E8001F41F0F2
:105A200040002168143141E80002002AF3D100BF90
:105A3000002004B070BD0000C95400087D55000866
:105A400079540008014691F84100212828D188683E
:105A5000B0F5805F0BD1086948B90A6A1088C0F3B5
:105A600008000B685860086A801C086205E00B6A31
:105A7000581C086218780B685860C88C401E80B2A9
:105A8000C88458B90868C06820F080000B68D860E6
:105A90000868C06840F040000B68D860002070477C
:105AA0000220FCE72DE9F84304460D4617469846C8
:105AB000089E31E0701C70B3FCF7DEFAA0EB080022
:105AC000B04200D816B90320BDE8F8832068C0684A
:105AD00000F00400F8B1802D1ED0402D1CD02068AD
